:020000020000FC
:100000003BC218951895189572C01895DCC01895C4
:100010001895189518951895189518951895189578
:1000200018951895189520600000A89501B50861ED
:1000300001BD0FE001BDA895089500E00FBD0EB50C
:1000400009600EBD04E814EE1BBD0ABD03B70460D1
:1000500003BF09B7026409BF429A089508B30C6F41
:1000600008BB07B30C6F07BB02B30C6702BB01B33D
:100070000E6501BB0895E0E600E0048F0BE310E09D
:10008000048B158B108F118F00E1028F78940895E7
:100090000F3F21F40CE708BB05E005C0093C30F038
:1000A0000CEB08BB04E0EEE700830895013520F077
:1000B0000CED08BB03E0F7CF053120F00CEE08BBD8
:1000C00002E0F1CF063020F004EF08BB01E0EBCFF7
:1000D00008EF08BB00E0E7CFA801B90101501040CC
:1000E00020403040452B462B472BB1F70895AA936B
:1000F0009A938A93FA93EA933A922A921A920A92DC
:100100007A936A935A934A933A932A931A930A9347
:10011000AFB784B595B594980AE010E020E030E0E0
:10012000DBDF9398E0E60489158920E030E0D4DF36
:10013000939AE0E6008D10E020E030E0CDDF949A65
:10014000E0E6018D10E020E030E0C6DF9298E0E6C6
:10015000028D10E020E030E0BFDF929AE0E6038DF0
:100160000395038F20E04085518562857385480F94
:10017000591F621F721F408751876287738708303B
:1001800068F0238F8A019B0143E0BBD1028B138B64
:10019000448F00E000870187028703874FD1A8952D
:1001A000AFBF09911991299139914991599169915B
:1001B00079910990199029903990E991F991899153
:1001C0009991A9911895EA932A931A930A932FB7B4
:1001D0000EEF02BFEEE70081002361F001810023F2
:1001E00049F400E11081011B0183919B02C09198A9
:1001F00001C0919A0181002311F00A9501830081C9
:10020000002309F491982FBF099119912991E9913F
:1002100018950CEF08BB8B9801C0C2980FE312E44D
:100220002FE0015010402040E1F700C00000EEE751
:100230000081013011F400E001C001E00083C299A7
:10024000ECCFC29AEBCF65D188249924442455245D
:100250006624772480E002DFF0DE0DDF0FE312E496
:100260002FE0015010402040E1F700C00000DDDE2B
:10027000F8E0E0E6048D0023E9F302891389448560
:10028000558566857785400F511F681D781D448709
:10029000558766877787848EFA9561F7052F54878F
:1002A0006587768787860253058F093108F4C1C0B8
:1002B000083340F409E1802E07E3402E00EA602E67
:1002C0008CE81CC00C3440F407E3802E0BE4402E75
:1002D0000CE8602E87E612C0033540F40BE4802E54
:1002E00002E5402E07E6602E82E508C0003630F4B5
:1002F00002E5802E0FE5402E682C81E4058D10E08C
:1003000008191040482F50E046195040BFD04818F7
:100310005908A201E3D0600E711EE0E6648A758A76
:10032000058D003618F001E4048B958A0CE0008FEF
:10033000918E02E3028F04891589048D0023E9F36D
:10034000948E948695869686978640E2048D002347
:10035000E9F3028913890484158426843784000E06
:10036000111E291C391C0486158626863786948E14
:100370004A9561F78001910145E0C3D0068B178B48
:1003800005C00F3F10400CF00FEF82DEE0E6048D59
:100390000023E1F300E0948E9486958696869786F6
:1003A000102F110FE0E6E10F22813381208331838A
:1003B00003950330A8F3E0E60289138906831783C7
:1003C00040E0042F000FE00F00811181E0E604847B
:1003D000158426843784000E111E291C391C0486BE
:1003E0001586268637864395443058F3800191015F
:1003F00042E087D0028B138B8D9A06E00A95F1F7C5
:1004000000C08D9806E00A95F1F700C0859B01DFDA
:10041000E0E60289138926893789021B130B000F36
:10042000111F408951895AD011230AF0AACF00E048
:10043000ACCFEFDE00E010E0EAE076C072D080E002
:1004400090E0F8948E98969801C001968699FDCF19
:10045000969A8E9A0797893E03E0900718F4082F22
:10046000092B11F481E090E0E0E6808B918BE2E0D3
:1004700063C000008895FECF0FEC0DBFC0EB60D0CD
:10048000002309F069D0DFDEF4DFF3CF002411246C
:100490000030010741F01695079510F4040E151E63
:1004A000440F551FF5CF002D112D08950024112460
:1004B000EFE0001F111F001C111C0416150610F0A0
:1004C000041A150AEA95AAF7001F111FA00100954A
:1004D000109508955195419550400895FF27552353
:1004E00012F4F160F7DF112312F4F09506D0DEDF8D
:1004F000F0FD03D0F1FDEECF089511950195104068
:1005000008954A952AF03695279517950795F9CFBE
:1005100008959A928A927A926A925A924A92BA93D9
:10052000AA939A938A930895998488847F806E8091
:100530005D804C80BB81AA8199818881CE0F08950E
:1005400001E0089510E01D930A95E9F708951591CB
:100550001D930A95E1F7089586E290E0FC0105916C
:10056000A491FC01329625913491122F132B19F08E
:10057000F901EDDF01C0E6DF049610E08A32910751
:0405800068F308957F
:0400000300000000F9
:00000001FF
